:020000040800F2
:10000000D0420020C1010008C5130008690C000897
:10001000BB0E000851090008A920000800000000DC
:10002000000000000000000000000000ED160008C5
:10003000B109000800000000611400083918000828
:10004000DB010008DB010008DB010008DB01000820
:10005000DB010008DB010008DB010008DB01000810
:10006000DB010008DB010008DB010008DB01000800
:10007000DB010008DB010008DB010008DB010008F0
:10008000DB010008DB010008DB010008DB010008E0
:10009000DB010008DB010008DB010008DB010008D0
:1000A000DB0100081D190008DB010008DB01000866
:1000B000DB010008691A0008E11A0008DB010008EA
:1000C000DB010008DB010008DB010008DB010008A0
:1000D000DB010008DB0100088D1E0008DB010008C1
:1000E000DB010008DB010008DB010008DB01000880
:1000F000DB010008DB010008DB010008DB01000870
:10010000DB010008DB010008DB010008DB0100085F
:10011000DB010008DB010008DB010008DB0100084F
:10012000DB010008DB010008DB010008DB0100083F
:10013000DB010008DB010008DB010008DB0100082F
:10014000DB010008DB010008DB010008DB0100081F
:10015000DB010008DB010008DB010008DB0100080F
:10016000DB010008DB010008DB010008DB010008FF
:10017000DB010008DB010008DB01000800000000D3
:10018000DB010008DB010008DB010008DB010008DF
:10019000DB010008DB010008DB010008DB010008CF
:1001A000DB010008DB010008DB010008DFF80CD0F0
:1001B00000F062FA00480047AD320008D04200204B
:1001C0000648804706480047FEE7FEE7FEE7FEE7F1
:1001D000FEE7FEE7FEE7FEE7FEE7FEE73D18000864
:1001E000AD01000840EA01039B0703D009E008C9FC
:1001F000121F08C0042AFAD203E011F8013B00F8EC
:10020000013B521EF9D27047D2B201E000F8012B37
:10021000491EFBD270470022F6E710B513460A4686
:1002200004461946FFF7F0FF204610BD30B50546DD
:100230002A460B4612F8010B13F8014B08B1A042F5
:10024000F8D01CB1002802D06D1CF1E7284630BD63
:10025000421C10F8011B0029FBD1801A704730B5F1
:1002600004460020034600E05B1C934203D2E05C9E
:10027000CD5C401BF8D030BD30B50B4601460020A8
:100280002022012409E021FA02F59D4205D303FA58
:1002900002F5491B04FA02F52844151EA2F10102D9
:1002A000F1DC30BD2DE9F05F0546002092469B460B
:1002B00088460646814640241BE02846414647467C
:1002C000224600F0FAF953465A46C01A914110D31B
:1002D00011461846224600F0E1F92D1A67EB010895
:1002E0004F4622460120002100F0D8F917EB000903
:1002F0004E41201EA4F10104DFDC484631462A4667
:100300004346BDE8F09F2DE9FE4F804681EA030099
:10031000C00F0C46009021F0004123F00045B8EBDF
:100320000200A94105D24046214690461C460B4694
:10033000024623F00040104347D0270DC7F30A00C0
:10034000C3F30A510290401A019040286BDAC3F3BC
:10035000130040F4801B0098924620B10023D2EB9A
:10036000030A63EB0B0B01985946C0F1400250465B
:1003700000F094F906460D4650465946019A00F0A1
:10038000ACF910EB08006141002487EA115284EABD
:10039000E7731A4340D0009A62B3019A012A4FEAE8
:1003A000075215DC001B61EB02014FF0004202EA2C
:1003B0000752CDE90042001C41F5801132462B4620
:1003C00000F0ACF903B0BDE8F08F40462146F9E7F4
:1003D000001B61EB0201001C41F5801300185B411A
:1003E0002018A2F5001747EB030140EAD570B619B3
:1003F0006D4111E06D084FEA360645EAC0754FEAD7
:100400000752001B61EB0201001C41F580114908F5
:100410004FEA30000019514132462B4603B0BDE887
:10042000F04F00F06CB90098012240000023D0EB9F
:10043000020263EBE073009821464FEAE074B8EBE8
:10044000000061EB0401E9E783F000435BE781F022
:10045000004158E72DE9FE4F81EA030404F000440F
:1004600021F0004100944FF0000B23F0004350EACC
:1004700001045ED052EA03045BD0C3F30A54C1F313
:100480000A552C44A4F2F3340194A0FB0254C1F3A6
:10049000130141F48011C3F3130343F4801301FBF0
:1004A000024400FB034E840A970A44EA815447EA57
:1004B0008357A4FB076802958D0A05FB07854FEA61
:1004C000932C04FB0C542705029D4FEA065847EA7B
:1004D0001637B5EB08056EEB070C870E920E47EA50
:1004E000811742EA8312A7FB0201B6EB0B0164EB12
:1004F00000042B0D43EA0C335E1844EB1C50DA4623
:100500005146E7FB0201C5F313044FEA0B3343EAFC
:1005100014534FEA0432019C43EA0603A4F10C048D
:100520000294009CCDE900B400F0F8F803B0BDE8F7
:10053000F08F00200146F9E72DE9F04D81EA030430
:1005400004F0004B21F0004514464FF0000A23F060
:10055000004150EA050220D054EA01021DD0C5F343
:100560000A570246C5F31303C1F31300C1F30A5639
:1005700040F4801543F48013A7EB0608101BD64601
:1005800008F2FD3873EB050002D308F1010801E021
:1005900092185B41B8F1000F03DA00200146BDE874
:1005A000F08D00204FF48011064684460EE0171BA4
:1005B00073EB050705D3121B63EB050306434CEAF7
:1005C000010C49084FEA300092185B4150EA0107DC
:1005D000EDD152EA030012D082EA040083EA050159
:1005E000084305D0101BAB4106D20122002306E0D0
:1005F00000224FF0004302E06FF0010253101AEBAB
:1006000006004CEB085110EB0A0041EB0B01BDE872
:10061000F04D00F074B8C1F30A52C1F3130140F277
:10062000FF3341F480119A4202DA002001467047FC
:1006300040F233439A42A2F2334202DC524200F0CB
:100640003CB800F02BB8000030B5041E71F1000476
:1006500004DB4FF00044404264EB0101141E73F1CF
:10066000000405DB1C464FF00043524263EB0403D9
:10067000994208BF904230BD064C074D06E0E06845
:1006800040F0010394E8070098471034AC42F6D3D9
:10069000FFF790FDBC560008DC560008202A04DB5A
:1006A000203A00FA02F1002070479140C2F1200385
:1006B00020FA03F3194390407047202A04DB203AC4
:1006C00021FA02F00021704721FA02F3D040C2F172
:1006D00020029140084319467047202A06DBCB17B9
:1006E000203A41FA02F043EAE07306E041FA02F3ED
:1006F000D040C2F12002914008431946704710B51E
:10070000141E73F1000408DA401C41F10001921834
:100710005B411A4301D120F0010010BD2DE9F04DDD
:1007200092469B4611B1B1FA81F202E0B0FA80F232
:1007300020329046FFF7B2FF04460F4640EA0A0017
:1007400041EA0B0153465A46084313D0114653EA77
:10075000010019D0C8F140025046FFF7AEFF054630
:100760000E46504659464246FFF798FF084305D0CB
:10077000012004E020463946BDE8F08D0020054305
:1007800046EAE0762C4337430A986305E40AA0EB77
:1007900008000022FD0A44EA47540A3002D500202E
:1007A0000146E9E7010510196941DDE9084500192D
:1007B0006941BDE8F04DA2E770B5A2B0314C324DB1
:1007C0004FF40271204600F051FB40F26B122946B3
:1007D0002E4800F064FB05F115022DA1204602F021
:1007E0008DF82046FFF734FDA4F880002B4605F174
:1007F000150231A104F1820002F080F804F18200B8
:10080000FFF726FDA4F8020105F115031A462CA1F5
:1008100002A8009502F072F802A8FFF719FD06463B
:1008200095F86A0005F12A0304F5827231460090BA
:1008300002A803F089F804F58270FFF709FDA4F817
:1008400084012A4627A104F5C37002F057F840F24C
:100850005B70A4F80602B4F8062204F5C3712BA05D
:1008600003F038F821462EA003F034F804F1820199
:100870002FA003F02FF804F5827131A003F02AF8BD
:1008800022B070BDC83C00205C3B0020EC54000846
:1008900025737C7365637572656D6F64653D332C7C
:1008A0007369676E6D6574686F643D686D616373CD
:1008B0006861317C0000000025732625730000006C
:1008C000636C69656E7449642573646576696365F4
:1008D0004E616D65257370726F647563744B6579D5
:1008E0002573000025732E696F742D61732D6D7152
:1008F00074742E636E2D7368616E676861692E6112
:100900006C6979756E63732E636F6D00B7FE20CED0
:10091000F120C6F7A3BA25733A25640D0A0000003A
:10092000BFCDBBA7B6CB4944A3BA25730D0A0000BF
:10093000D3C320BBA720C3FBA3BA25730D0A0000B5
:10094000C3DC20202020C2EBA3BA25730D0A0000CF
:1009500000BFFEE770B506460D46144CEAB243F2FE
:1009600018000059411C304600F08BFA43F2180081
:1009700000590570002143F218000259681C1154F7
:1009800043F21800005900F5007043F218010851B5
:100990000846015943F220000059814205D142F234
:1009A0001800211843F21800015170BD30090020D1
:1009B000704770B50446002504E04FF47A7002F0E9
:1009C0004FFC6D1CA542F8D370BD000000B587B088
:1009D0004FF4A06000F03AFD0121084600F09CFDB4
:1009E0000121084600F098FD0121480400F0A4FD13
:1009F00007220321314800F0FBF8072202212F488B
:100A000000F0F6F80420059002208DF818008DF80B
:100A1000190000208DF81A0001208DF81B0005A98F
:100A2000264800F09DF80820059002208DF8180057
:100A30008DF8190000208DF81A0001208DF81B0098
:100A400005A91E4800F08CF84FF4E1300190002019
:100A5000ADF80800ADF80A00ADF80C00ADF81000D4
:100A60000C20ADF80E0001A9154801F0B3FA2021C1
:100A7000134801F04BFA012240F22551104801F0D1
:100A800084FA26208DF8000000208DF801008DF8F2
:100A9000020001208DF80300684600F09BFC012154
:100AA000074801F03CFA0121064800F0D3F940F66E
:100AB0000201054800F0DAF907B000BD000002406D
:100AC00000440040140000202C010020014600BF1B
:100AD0000B4A128802F04002002AF9D001200BE0F4
:100AE0000A5C074B1B1D1A8000BF054A128802F0E2
:100AF0004002002AF9D0401C0A788242F0DA70479E
:100B0000004400400FB438B505A800901248009A80
:100B1000049901F007FF002000900F48FFF798FBB1
:100B2000054600BF0D48008800F040000028F9D0BD
:100B300000240CE00848005D0849091D088000BF3A
:100B40000648008800F040000028F9D0641CAC4240
:100B5000F0D338BC5DF814FB2E05002000440040A3
:100B6000F0B50A4600210023002400BF3DE0012526
:100B700005FA01F3156805EA03049C4234D10568BF
:100B80004F000326BE40B543056015794E00B540C1
:100B90000668354305601579012D02D01579022DBF
:100BA00016D185684F000326BE40B5438560557950
:100BB0004E00B540866835438560456801268E4005
:100BC000B5434560456896798E40B6B23543456079
:100BD000C5684F000326BE40B543C560D5794E00B9
:100BE000B540C6683543C560491C1029BFD3F0BD68
:100BF000F0B5002300244D07ED0E02FA05F3CE10E8
:100C000000F1200555F826504E07F70E0F26BE407E
:100C1000B543CF1000F1200646F82750CE1000F162
:100C2000200555F8265045EA0304CE1000F12005B2
:100C300045F82640F0BD0246002013690B400BB179
:100C4000012000E0002070470246002053690B405D
:100C50000BB1012000E000207047018370470AB10A
:100C6000018300E04183704700BFFEE71CB501210E
:100C7000084600F051FC0220009000208DF804008E
:100C800003208DF8050001208DF80700694606480D
:100C9000FFF766FF0120009002208DF807006946EB
:100CA0000148FFF75DFF1CBD0000024010B5202188
:100CB0000848FFF7D2FF02210748FFF7CEFF4FF4A5
:100CC00080610548FFF7C9FF4FF400610248FFF754
:100CD000C4FF10BD000002400004024000B585B012
:100CE0001421684600F0B6F80DA1684601F006FE32
:100CF00020210D48FFF7A8FF18B130208DF807001C
:100D000002E031208DF80700084800788DF80800CF
:100D100009226946064800F099FA05B000BD0000B6
:100D20002B4F6E6553573A0000000240040000202C
:100D3000473C00201CB50121084600F0EDFB0121D5
:100D4000022000F0E9FB2020009001208DF8040033
:100D500000208DF8060002208DF8050001208DF896
:100D6000070069460C48FFF7FBFE40F60240009082
:100D700001208DF8040000208DF8060002208DF877
:100D8000050001208DF8070069460448FFF7E8FEDA
:100D9000FFF78CFF1CBD0000000002400004024071
:100DA0002DE9F04FADF5037D0746387882907D1C24
:100DB000002004468046064600BF761C601C285C66
:100DC00000F1020844448298A0EB080082908298C7
:100DD0000028F2D1012E03D0314617A002F07AFD8F
:100DE00000200446804683461FE0E01C295CA01CCE
:100DF000285C01EB002000F10209601C285CA0EBDC
:100E0000090AA01C4844819081982918524601A8DB
:100E1000FFF7E8F9514601A8FFF79CFD601C285C2C
:100E200000F1020844440BF1010BB345DDDB0DF585
:100E3000037DBDE8F08F0000B1BEB4CEBDD3CAD5EE
:100E4000C1CB2564B8F6CDC6CBCDCAFDBEDD0D0A3B
:100E50000000000010B50346002204E000241C70CE
:100E60005B1C541CE2B28A42F8DB10BD10B503468D
:100E7000002203E000241C705B1C521C8A42F9D340
:100E800010BDF0B504460D46002305E026782E700F
:100E90006D1C641C5F1CFBB29342F7DBF0BDF0B528
:100EA00004460D46002305E026782E706D1C641C58
:100EB0005F1CBBB29342F7DBF0BD00BFFEE7000052
:100EC00070B53D4C42F210000159001F005981429B
:100ED0005CD042F20C000159001D0151005941F251
:100EE0000C012144884208D141F20C00204400F555
:100EF000006042F21001085137E042F2100001593F
:100F000041F20C00204400F50070814208D141F20A
:100F10000C00204400F5206042F21001085124E04A
:100F200042F21000015941F20C00204400F58060AB
:100F3000814208D141F20C00204400F5406042F2A9
:100F40001001085111E042F210000059A0F50070A4
:100F500042F21001085108460059A0F500700851EE
:100F600008460059A0F50070085142F20C000559DE
:100F7000001D0159001F015100F070F800210F48B9
:100F800000F0C0F942F20C00055105E000F066F8EF
:100F900000210A4800F0B6F90948007820F0040062
:100FA000074908700846007820F008000870002102
:100FB000044880F82A1270BD30090020C73B002089
:100FC000150000203039002010B5204C01212048A8
:100FD000FFF740FF43F22C212046FFF747FF40F286
:100FE0006B111C48FFF742FF4FF402711A48FFF7DC
:100FF0003DFF4FF4805004510159001D015104F58B
:10100000606041F208010851081D211842F20C00ED
:1010100001510159001D015141F20C00204400F51D
:10102000606042F214010851081D211843F21800B3
:1010300001510159001D015142F21800204400F5F0
:10104000606043F22001085110BD0000300900200B
:10105000150000205C3B0020C83C002070B56F4D9F
:101060006F4C022143F2240001530A21801C0153DA
:1010700035F8800F001DB5F882100844801CB5F8C3
:101080000411084481B243F2280001531021801C4E
:101090000155001F015D801C005D084443F22A01D8
:1010A00021444870002043F22A0121448870042022
:1010B00043F22A012144C8704D2043F22A01214401
:1010C0000871512043F22A0121444871542043F20F
:1010D0002A012144887143F22A012144C871042065
:1010E00043F22A0121440872C22043F22A0121441A
:1010F0004872002043F22A0121448872B42043F24E
:101100002A012144C8722888C11700EB1161090A1D
:1011100043F22A02224411732888C11700EB11619F
:101120000912A0EB012143F22A022244517335F83F
:101130008029294643F22A0020440E30FFF752F856
:101140008035B5F88200C11700EB1161C1F30722A9
:1011500029880E3143F22A0323445A54B5F88200F9
:10116000C11700EB11610912A0EB0121CAB2298855
:101170000F3143F22A0323445A54B5F8822035F83C
:101180008019103143F22A032344C81805F1820163
:10119000FFF728F88035B5F80401C11700EB11619D
:1011A000C1F3072229881031B5F88230194443F27F
:1011B0002A0323445A54B5F80401C11700EB116106
:1011C0000912A0EB0121CAB229881131B5F8823089
:1011D000194443F22A0323445A5429881231B5F89A
:1011E0008230194443F22A032344C818B5F8042175
:1011F000803D05F58271FEF7F5FF43F22400025BA6
:10120000801C005B024443F22800005B111843F28B
:101210002A00204400F012FE70BD0000C83C0020EF
:101220003009002010B5084CC02143F22A000155B6
:10123000002043F22A0121444870022143F22A008F
:10124000204400F0FBFD10BD300900202DE9F041E5
:1012500005460F4616462A4C022143F2240001534C
:101260002846FEF7F5FF801C81B243F226000153A9
:10127000801C06533021801C0155001F015D801C1D
:10128000005D084443F22A01214448702846FEF7D5
:10129000DFFF000A43F22A01214488702846FEF746
:1012A000D7FF43F22A012144C8702846FEF7D0FF39
:1012B00080464246294643F22A002044001DFEF79C
:1012C00091FF2846FEF7C4FF001D43F22A01214486
:1012D00000EB0108324639464046FEF783FF43F2F1
:1012E0002400025B801C005B024443F22800005B88
:1012F000111843F22A00204400F0A0FDBDE8F0815F
:10130000300900202DE9F04105460E462C4C022103
:1013100043F224000153801C01532846FEF798FF36
:10132000C01C81B243F2280001538221801C015568
:10133000001F015D801C005D084443F22A01214426
:101340004870002043F22A0121448870012043F2B2
:101350002A012144C8702846FEF77AFF000A43F2AA
:101360002A01214408712846FEF772FF43F22A0140
:10137000214448712846FEF76BFF07463A46294646
:1013800043F22A002044801DFEF72CFF2846FEF77A
:101390005FFF801D43F22A0121440E5443F22400D2
:1013A000025B801C005B024443F22800005B1118C2
:1013B00043F22A00204400F041FDBDE8F081000026
:1013C00030090020704710B54FF4A06000F03EF8DF
:1013D00010BD000070B5002100230F22C4781CB39B
:1013E000174C246804F4E064C4F5E064C4F30721F6
:1013F000C1F10404E3B20A4144789C40E1B284782C
:10140000144021430C07210E0E4C057861550478D9
:1014100004F01F050124AC4005786D11AD0005F105
:10142000E025C5F8004109E0047804F01F05012417
:10143000AC40054D0678761145F8264070BD000099
:101440000CED00E000E400E080E100E0024901432F
:10145000024A1160704700000000FA050CED00E040
:101460007047000000B587B00121084600F054F82D
:101470000121084600F050F80121102000F07CF80E
:10148000072209212248FFF7B3FB07220A2120483F
:10149000FFF7AEFB4FF40070059002208DF81800A6
:1014A0008DF8190000208DF81A0001208DF81B001E
:1014B00005A91748FFF754FB4FF480600590022000
:1014C0008DF818008DF8190000208DF81A00012001
:1014D0008DF81B0005A90E48FFF742FB4FF4E130E1
:1014E00001900020ADF80800ADF80A00ADF80C003E
:1014F000ADF810000820ADF80E0001A9054800F075
:1015000069FD0121034800F00AFD07B000BD00009D
:10151000000002400010014029B1064A126802434F
:10152000044B1A6004E0034A12688243014B1A60BC
:10153000704700003038024029B1064A1268024361
:10154000044B1A6004E0034A12688243014B1A609C
:10155000704700004038024029B1064A1268024331
:10156000044B1A6004E0034A12688243014B1A607C
:10157000704700002038024029B1064A1268024331
:10158000044B1A6004E0034A12688243014B1A605C
:10159000704700004438024029B1064A12680243ED
:1015A000044B1A6004E0034A12688243014B1A603C
:1015B0007047000024380240F0B5002100220024CA
:1015C000022500260223324F3F6807F00C0121B1AB
:1015D000042905D0082937D105E02E4F076036E0F1
:1015E0002D4F076033E02A4F3F1F3F68C7F38056F7
:1015F000274F3F1F3F6807F03F036EB1264FB7FBF1
:10160000F3F7DFF88CC0ACF1040CDCF800C0CCF3CD
:10161000881C07FB0CF40CE01E4FB7FBF3F7DFF858
:1016200070C0ACF1040CDCF800C0CCF3881C07FBE4
:101630000CF4174F3F1F3F68C7F301477F1C7D0025
:10164000B4FBF5F7076002E0124F076000BF00BF70
:101650000F4F3F6807F0F0010909104F7A5C0768E7
:10166000D74047600A4F3F6807F4E051890A0B4FA3
:101670007A5C4768D7408760054F3F6807F4604150
:10168000490B064F7A5C4768D740C760F0BD000041
:10169000083802400024F40040787D011C0000203E
:1016A00010B501460022002300204A11012A02D170
:1016B0000A4C236808E0022A03D1084C70342368DE
:1016C00002E0064C7434236801F01F0201249440A8
:1016D0001C400CB1012000E0002010BD0038024089
:1016E0000149086070470000800E474270470000C3
:1016F0000CB50020019000904148006840F4803013
:101700003F49086000BF3E48006800F40030009088
:101710000198401C0190009818B90198B0F5A04FAD
:10172000F1D13748006800F4003010B1012000907A
:1017300001E0002000900098012860D1304840303E
:10174000006840F080502E49403108602D48006804
:1017500040F440402B490860294808300068284977
:10176000083108600846006840F4004008600846F8
:10177000006840F4A05008602348091F0860081F53
:10178000006840F08070091F086000BF1C480068B6
:1017900000F000700028F9D01A48006840F480304A
:1017A0001849086000BF1748406800F480300028DE
:1017B000F9D01448006840F400301249086000BFB6
:1017C0001048406800F400300028F9D040F205705D
:1017D0000E4908600A480830006820F003000849F4
:1017E000083108600846006840F00200086000BF49
:1017F00003480830006800F00C000828F8D10CBD40
:101800000038024000700040195A4007003C024076
:10181000042808D14FF0E021096941F004014FF09C
:10182000E022116107E04FF0E021096921F0040195
:101830004FF0E022116170477047000010B5154865
:10184000006840F47000134908601348006840F0D5
:1018500001001149086000200F49083108600E4856
:1018600000680E4908400C4908600D48091D0860D1
:10187000081F006820F48020091F08600020064926
:101880000C310860FFF734FF4FF0006001498039E8
:10189000086010BD88ED00E000380240FFFFF6FE52
:1018A000103000241FB54FF4A060FFF7CFFD0121D9
:1018B0000846FFF761FE184800F064F94EF65F2015
:1018C00002904AF20F40ADF8040001208DF80E009E
:1018D0000020ADF80600ADF80C0001A90E4800F09C
:1018E00035FA01210C4800F03DF9012211460A4861
:1018F00000F021FA19208DF8000001208DF8010078
:101900008DF802008DF803006846FFF763FD0121A2
:10191000014800F02AF91FBD0000014010B5012167
:10192000134800F0F7F910B312480068401E11493F
:10193000086008460068A0B920210F48FFF784F925
:1019400008B9012000E000200446224620210A4870
:10195000FFF785F9FFF7C2F90021054800F005F906
:1019600001E0FFF7BBF90121014800F0FBF810BDD1
:101970000000014004000020000002401FB54FF4A9
:10198000A060FFF763FD01210220FFF7D5FD184895
:1019900000F0F8F844F61F60029042F2CF00ADF874
:1019A00004000020ADF80600ADF80C0001A91048B5
:1019B00000F0CCF901210E4800F0D4F801221146C4
:1019C0000B4800F0B8F90121094800F0CEF81D20BD
:1019D0008DF8000001208DF8010000208DF8020034
:1019E00001208DF803006846FFF7F4FC1FBD0000DE
:1019F000000400401FB54FF4A060FFF727FD012150
:101A00000220FFF799FD174800F0BCF84EF65F2062
:101A100002904AF20F40ADF804000020ADF8060035
:101A2000ADF80C0001A90F4800F090F901210D4814
:101A300000F098F8012211460A4800F07CF90121D3
:101A4000084800F092F81D208DF8000002208DF863
:101A5000010001208DF802008DF803006846FFF7B1
:101A6000B9FC1FBD0004004010B50121194800F069
:101A700051F970B3184890F82A0206281CD2DFE802
:101A800000F003060B0C0D10FFF7CCFB14E0FFF782
:101A900075FFFFF7C7FB0FE000BF00BFFFF7C2FBFA
:101AA0000AE00E48007820F001000C49087000217F
:101AB000084800F05AF800BF00BF074890F82A0213
:101AC000401CC1B2044880F82A120121014800F0EC
:101AD00049F810BD000400403039002015000020F6
:101AE00010B501211A4800F015F900282ED0194828
:101AF000027819480068411C1648801CFFF7C1F99C
:101B0000144801781448006801701348006800F513
:101B1000007011490860084601688068814202D15E
:101B20000E490D48016000200A49088000210C4838
:101B300000F00AF90021064800F017F800210448D7
:101B400000F002F90121024800F00CF810BD00007D
:101B5000000800402C01002030190020300900202E
:101B600000040040CA430282704721B1028842F05B
:101B70000102028004E002884FF6FE731A400280E0
:101B80007047000010B504465548844208D1012131
:101B90000846FFF701FD00210120FFF7FDFC9DE055
:101BA000B4F1804F08D101210846FFF7D5FC002190
:101BB0000120FFF7D1FC91E04A48844208D101217D
:101BC0000220FFF7C9FC00210220FFF7C5FC85E0D9
:101BD0004548844208D101210420FFF7BDFC0021C3
:101BE0000420FFF7B9FC79E04048844208D1012184
:101BF0000820FFF7B1FC00210820FFF7ADFC6DE0E5
:101C00003B48844208D101211020FFF7A5FC0021A8
:101C10001020FFF7A1FC61E03648844208D1012181
:101C20002020FFF799FC00212020FFF795FC55E0CC
:101C30003148844208D101210220FFF7ADFC002188
:101C40000220FFF7A9FC49E02C48844209D1012178
:101C50000804FFF7A1FC00214FF48030FFF79CFC43
:101C60003CE02748844209D101214804FFF794FC55
:101C700000214FF40030FFF78FFC2FE02148844211
:101C800009D101218804FFF787FC00214FF480204F
:101C9000FFF782FC22E01C48844208D10121402049
:101CA000FFF75AFC00214020FFF756FC16E01748CA
:101CB000844208D101218020FFF74EFC00218020C2
:101CC000FFF74AFC0AE01248844207D1012180153F
:101CD000FFF742FC0021A015FFF73EFC10BD0000FD
:101CE000000001400004004000080040000C0040DB
:101CF000001000400014004000040140004001407A
:101D0000004401400048014000180040001C004011
:101D10000020004030B50246002000230024158A30
:101D200005EA0103958905EA010413B10CB101200C
:101D300000E0002030BD1AB183890B43838102E0AB
:101D400083898B43838170474162704700220288F8
:101D5000184B98420ED0184B98420BD0B0F1804FE0
:101D600008D0164B984205D0154B984202D0154B1F
:101D7000984204D14FF68F731A404B881A43124B86
:101D8000984207D0114B984204D04FF6FF431A40B7
:101D90000B891A4302804B68C3620B880385054B8D
:101DA000984202D0044B984201D18B7A03860123DA
:101DB000838270470000014000040140000400409D
:101DC00000080040000C00400010004000140040DB
:101DD0007FB505460C464FF4A060FFF737FB0121A5
:101DE0000420FFF7A9FB0295ADF804400020ADF8F0
:101DF0000600ADF80C0001A90F48FFF7A7FF01216D
:101E00000D48FFF7AFFE012211460B48FFF793FF85
:101E100000210948FFF7A9FE1E208DF800000120CF
:101E20008DF8010000208DF8020001208DF80300DC
:101E30006846FFF7CFFA7FBD0008004070B5064640
:101E40000D46114CEAB242F20C000059411C3046DA
:101E5000FFF717F842F20C000059057042F20C002F
:101E6000005900F5007042F20C0108510846015972
:101E700042F214000059814205D141F20C002118B0
:101E800042F20C00015170BD3009002010B540F243
:101E900025511A4800F04FF878B31948007800F03F
:101EA000010088B91548001D008830B31348001D93
:101EB0000088C1B213480288801C8154801E0088AB
:101EC000401C1049088018E00C48001D0088C1B271
:101ED0000C480288801C8154801E008820B9012192
:101EE0000948FFF742FE03E000210748FFF72CFFF7
:101EF00004480088401C0349088010BD004400408D
:101F0000150000202C0100200008004001F40072A0
:101F1000B2F5007F00D100BFCA430280704721B1F3
:101F2000828942F40052828104E082894DF6FF7377
:101F30001A408281704770B50246002400230025B4
:101F4000002040F66A16B14200D100BFC1F342152D
:101F500001F01F03012606FA03F3012D02D1968931
:101F6000334006E0022D02D1168A334001E0968A02
:101F700033400C12012606FA04F41688344013B1DB
:101F80000CB1012000E0002070BDF0B50346002434
:101F900000260025002040F66A17B94200D100BF94
:101FA0001846C1F3421401F01F06012707FA06F58F
:101FB000012C01D10C3004E0022C01D1103000E0E2
:101FC00014301AB107682F43076002E00768AF4377
:101FD0000760F0BD2DE9FF4705460E460024A146E7
:101FE00000BFA046B08900B100BF2C8A24F4405441
:101FF000F08804432C82AC8941F20C608443B088A1
:1020000031890843718908430443AC81AC8A24F4C4
:102010004074B0890443AC826846FFF7CDFA20488B
:10202000854202D01F48854202D1DDF80C9001E0C4
:10203000DDF80890A88900F4004040B109EBC90020
:1020400000EB091031684900B0FBF1F707E009EB3C
:10205000C90000EB091031688900B0FBF1F764207A
:10206000B7FBF0F004012009642101FB1078A88976
:1020700000F4004040B1322000EBC800B0FBF1F0AA
:1020800000F00700044308E0322000EB0810642150
:10209000B0FBF1F000F00F0004432C81BDE8FF8796
:1020A000001001400014014000BFFEE710B50446D7
:1020B00000203149088000212F48801CFEF7CAFE0D
:1020C0002E48B0F8062200F5C3712DA0FEF71AFDC8
:1020D0001DE0C820FEF76DFC30A12748801CFEF7EC
:1020E000A5F800B117E02FA12348801CFEF79EF849
:1020F00008B1012010BD2DA11F48801CFEF796F8E5
:1021000008B10220F6E721462DA001F0E3FB201ED6
:10211000A4F10104DDD100BF2AA001F0DBFB002CFB
:1021200001DC0320E6E7322427A001F0D3FB0020E6
:102130001149088000211048801CFEF78BFE2AA060
:10214000FEF7E0FC0DE0C820FEF733FC2AA10A48A8
:10215000801CFEF76BF800B107E0214618A001F0E3
:10216000B9FB201EA4F10104EDD100BF002C01DC5D
:102170000420BFE70020BDE72C010020C83C002060
:1021800041542B43495053544152543D22544350DF
:10219000222C222573222C25640D0A00434F4E4E1B
:1021A00045435400434C4F5345440000414C524575
:1021B00041445920434F4E4E45435445440000008E
:1021C000256400000D0A0000C1ACBDD3B7FECEF1FE
:1021D000C6F7B3C9B9A6A3ACD7BCB1B8BDF8C8EBB4
:1021E000CDB8B4AB0D0A000041542B4349505345C0
:1021F0004E440D0A000000000D0A4F4B0D0A0D0A57
:102200003E00000010B5044600201549088000215A
:102210001348801CFEF71EFE12A215A117A0FEF7A0
:1022200071FC0EE04FF47A70FEF7C3FB19A10C4865
:10223000801CFDF7FBFF00B107E021461AA001F06A
:1022400049FB201EA4F10104ECD100BF17A001F04E
:1022500041FB002C01DC012010BD0020FCE7000048
:102260002C0100203132333435363738000000007D
:1022700068756177656935690000000041542B433A
:10228000574A41503D222573222C222573220D0AE4
:10229000000000005749464920474F542049500D3F
:1022A0000A0D0A4F4B000000256420000D0A0000B3
:1022B0001CB501210846FFF72FF9102000900120DE
:1022C0008DF8040000208DF8060002208DF805002E
:1022D00001208DF8070069460548FEF741FC012200
:1022E00010210348FEF7BBFC0020024908701CBD0A
:1022F000000002401600002070B505460C46002084
:102300001449088000211348801CFEF7A3FD2946CC
:1023100011A0FEF7F7FB0EE04FF47A70FEF749FBD1
:102320000FA10C48801CFDF781FF00B107E021469A
:102330000CA001F0CFFA201EA4F10104ECD100BFE3
:1023400009A001F0C7FA002C01DC012070BD0020BB
:10235000FCE700002C01002025730D0A000000009E
:102360004F4B0000256420000D0A000010B5044604
:1023700000201249088000211048801CFEF76AFDE9
:102380000EE04FF47A70FEF714FB0DA10B48801C91
:10239000FDF74CFF00B107E021460CA001F09AFACE
:1023A000201EA4F10104ECD100BF09A001F092FAB3
:1023B000002C01DC012010BD0020FCE72C010020D6
:1023C000636F6E6E656374656400000025640000D1
:1023D0000D0A000010B504460DE04FF47A70FEF7C8
:1023E000E8FA0CA10E48FDF721FF00B107E02146F5
:1023F0000CA001F06FFA201EA4F10104EDD100BF82
:1024000009A001F067FA002C01DC012010BD0020BA
:10241000FCE700005749464920474F5420495000E7
:102420002E010020256400000D0A000010B55DA0FB
:1024300001F050FA5FA001F04DFA322162A0FFF7DF
:102440005BFF20B163A001F045FA022010BD68A037
:1024500001F040FA6B48007800F0010000281BD121
:1024600069A001F037FA32216CA0FFF745FF20B1D7
:102470006EA001F02FFA0320E8E774A001F02AFA19
:1024800077A001F027FA1E20FFF7BCFE002858D0E5
:1024900078A001F01FFA54E002217B48FEF7CBFB45
:1024A00000283FD179A001F015FA32217CA0FFF776
:1024B00023FF20B17EA001F00DFA0320C6E784A01F
:1024C00001F008FA87A001F005FA32218BA0FFF78E
:1024D00013FF20B18DA001F0FDF90420B6E793A011
:1024E00001F0F8F997A001F0F5F93C20FFF73EFF65
:1024F00020B19AA001F0EEF90520A7E79EA001F017
:10250000E9F9A1A001F0E6F93221A5A0FFF7F4FE58
:1025100020B1A7A001F0DEF9062097E7ACA001F0FA
:10252000D9F90EE0B0A001F0D5F91E20FFF752FF57
:1025300020B1B2A001F0CEF9072087E74DA001F04D
:10254000C9F9B5A001F0C6F93221B7A0FFF7D4FE52
:1025500020B1B9A001F0BEF9082077E7BDA001F0D5
:10256000B9F9C0A001F0B6F93221C3A0FFF7C4FE4B
:1025700020B1C4A001F0AEF9092067E7C9A001F0BD
:10258000A9F9CDA001F0A6F96420FFF78FFD20B1D5
:10259000CEA001F09FF90A2058E7D3A001F09AF9E4
:1025A000002053E7D7BCB1B8B8B4CEBBC4A3BFE9D1
:1025B0000D0A0000D7BCB1B8C9E8D6C3535441C412
:1025C000A3CABD0D0A00000041542B43574D4F4490
:1025D000453D3100C9E8D6C3535441C4A3CABDCA5E
:1025E000A7B0DCA3ACD7BCB1B8D6D8C6F40D0A00EE
:1025F000C9E8D6C3535441C4A3CABDB3C9B9A60DD3
:102600000A00000016000020D7BCB1B8C8A1CFFB5B
:10261000D7D4B6AFC1ACBDD30D0A000041542B4393
:10262000574155544F434F4E4E3D3000C8A1CFFB4C
:10263000D7D4B6AFC1ACBDD3CAA7B0DCA3ACD7BCAE
:10264000B1B8D6D8C6F40D0A00000000C8A1CFFB6F
:10265000D7D4B6AFC1ACBDD3B3C9B9A60D0A00007B
:10266000D7BCB1B8C1ACBDD3C2B7D3C9C6F70D0A88
:1026700000000000C1ACBDD3C2B7D3C9C6F7B3C90F
:10268000B9A60D0A0000000000000240D7BCB1B896
:10269000C9E8D6C3D7D4B6AFC1ACBDD30D0A0000CC
:1026A00041542B43574155544F434F4E4E3D3100FB
:1026B000C9E8D6C3D7D4B6AFC1ACBDD3CAA7B0DCC6
:1026C000A3ACD7BCB1B8D6D8C6F40D0A0000000040
:1026D000C9E8D6C3D7D4B6AFC1ACBDD3B3C9B9A6C8
:1026E0000D0A0000D7BCB1B8BFAAC6F4536D617221
:1026F00074636F6E6669670D0A00000041542B43D6
:10270000575354415254534D41525400BFAAC6F43A
:10271000536D617274636F6E666967CAA7B0DCA39C
:10272000ACD7BCB1B8D6D8C6F40D0A00BFAAC6F45F
:10273000536D617274636F6E666967B3C9B9A60D34
:102740000A000000C7EBCAB9D3C3415050C8EDBC62
:10275000FEB4ABCAE4C3DCC2EB0D0A00B4ABCAE4FE
:10276000C3DCC2EBCAA7B0DCA3ACD7BCB1B8D6D827
:10277000C6F40D0A00000000B4ABCAE4C3DCC2EB2F
:10278000B3C9B9A60D0A0000D7BCB1B8B9D8B1D544
:10279000536D617274636F6E6669670D0A000000A5
:1027A00041542B435753544F50534D415254000002
:1027B000B9D8B1D5536D617274636F6E666967CABB
:1027C000A7B0DCA3ACD7BCB1B8D6D8C6F40D0A000C
:1027D000B9D8B1D5536D617274636F6E666967B3B2
:1027E000C9B9A60D0A000000B5C8B4FDC1ACBDD37F
:1027F000C2B7D3C9C6F70D0A00000000C1ACBDD3F3
:10280000C2B7D3C9C6F7CAA7B0DCA3ACD7BCB1B8AE
:10281000D6D8C6F40D0A0000D7BCB1B8C9E8D6C3F3
:10282000CDB8B4AB0D0A000041542B4349504D4F75
:1028300044453D3100000000C9E8D6C3CDB8B4AB73
:10284000CAA7B0DCA3ACD7BCB1B8D6D8C6F40D0AC1
:1028500000000000C9E8D6C3CDB8B4ABB3C9B9A66F
:102860000D0A0000D7BCB1B8B9D8B1D5B6E0C2B72F
:10287000C1ACBDD30D0A000041542B4349504D5506
:10288000583D3000B9D8B1D5B6E0C2B7C1ACBDD360
:10289000CAA7B0DCA3ACD7BCB1B8D6D8C6F40D0A71
:1028A00000000000B9D8B1D5B6E0C2B7C1ACBDD305
:1028B000B3C9B9A60D0A0000D7BCB1B8C1ACBDD32D
:1028C000B7FECEF1C6F70D0A00000000C1ACBDD3C3
:1028D000B7FECEF1C6F7CAA7B0DCA3ACD7BCB1B87F
:1028E000D6D8C6F40D0A0000C1ACBDD3B7FECEF1F8
:1028F000C6F7B3C9B9A60D0A000000000FB4084B13
:1029000010B504A902AA039800F0F0F8044602A941
:10291000002000F082FC204610BC5DF814FB000093
:102920001B32000837B514460846064B6A46214656
:1029300000F0DCF804466946002000F06EFC2046FA
:102940003EBD00001B32000802E008C8121F08C18B
:10295000002AFAD170477047002001E001C1121F20
:10296000002AFBD1704700002DE9FF5F82B00021F3
:10297000DDE90430020DDDF840B0034318D044F621
:102980001050A2F2FF3242431514119801281FD0B3
:10299000A5EB0B00401C5FEA000A4FF000064E4F0B
:1029A000DFF83891B046504615D5CAF1000413E05F
:1029B000119801244AA3012801D16FEA0B01029862
:1029C000119AC0E90031C0E9024206B0BDE8F09FAB
:1029D000CBF10000DFE704460021404A491842EBF2
:1029E0000450CDE9001012E0E00707D032463B4624
:1029F00040464946FDF72EFD8046894632463B4615
:102A000010461946FDF726FD06460F466410002CB9
:102A1000EAD1DDE90401DDE90023BAF1000F06DAAD
:102A2000FDF718FD42464B46FDF714FD05E0FDF7A6
:102A300083FD42464B46FDF77FFD04460E460022CD
:102A4000284BFDF701FE03D84FF0FF30014607E0A9
:102A50000022254B20463146FDF755FCFDF7DBFDF6
:102A6000102409E0002C0ADB0A220023FDF71AFCDF
:102A7000039B30321A55641E50EA0102F2D1641CE5
:102A8000039AC4F111031444119A012A03D00122BC
:102A900008430DD10AE0084304D000204FF0110B89
:102AA000119072E7A3EB0B056D1E0DE05B4504DD95
:102AB0004FF0000205F1010504E003DA4FF00002D7
:102AC000A5F10105002AECD002981199C0E9023164
:102AD000C0E9004579E70000000014400000F03F25
:102AE000300000000000F0430000E03F2DE9FF4F00
:102AF00095B09B468946064600250FE2252877D1EA
:102B000000242746F84A0121059400E0044316F802
:102B1000013F203B01FA03F01042F7D130782A2818
:102B200011D06FF02F033078A0F13002092A16D8A7
:102B3000059A44F0020402EB820203EB42021044C5
:102B4000761C0590EFE759F8042B0592002A03DA6A
:102B5000504244F40054059044F00204761C30784E
:102B60002E2816D116F8010F44F004042A280DD09F
:102B70006FF02F023078A0F13003092B09D807EB52
:102B8000870302EB4303C718761CF3E759F8047B6D
:102B9000761C30786C280FD006DC4C2817D06828BB
:102BA0000DD06A2814D104E0742810D07A280FD1EF
:102BB0000DE044F400140AE044F4801401E044F40D
:102BC00040147278824202D104F58014761C761C7F
:102BD000307866280BD013DC582877D009DC002821
:102BE00075D04528F6D04628F4D047281AD19DE163
:102BF00018E0632835D0642879D0652812D195E192
:102C0000702873D008DC6728F1D069286FD06E284F
:102C10000DD06F2806D1B5E073282CD0752875D05B
:102C2000782874D05A46179990476D1C75E1C4F303
:102C30000250022809D003280DD0D9F8001004282A
:102C40000DD00D6009F1040967E1D9F80010EA1709
:102C5000C1E90052F6E7D9F800100D80F2E70D70D7
:102C6000F0E719F8041B8DF8001000208DF8010022
:102C7000EA46012003E059F804AB4FF0FF3061074A
:102C80004FF0000102D40DE008F101018846B9427D
:102C90000FDA8045F8DB1AF808100029F4D108E0B3
:102CA00008F1010188468142FADB1AF80810002970
:102CB000F6D105985B46A0EB080721463846179ADF
:102CC00000F094FA284400EB080507E04DE029E104
:102CD0000DE01AF8010B5A4617999047B8F1010810
:102CE000F7D25B4621463846179A13E142E00A22A2
:102CF0000092C4F302524FF0000A022A08D059F899
:102D000004CB032A4FEAEC710AD00DE029E02AE057
:102D100009F1070121F00702F2E802C1914609E03A
:102D20000FFA8CFC4FEAEC71042A03D14FFA8CFCA9
:102D30004FEAEC71002907DA0A460021DCF1000CA9
:102D400061EB02012D2202E0220504D52B228DF831
:102D50000420012203E0E20701D02022F7E7904699
:102D600059E00A2102E010220DE010214FF0000A84
:102D700000910BE010224FF0000A44F004040827F1
:102D8000009203E008224FF0000A0092C4F30252BE
:102D9000022A05D059F804CB0021032A08D009E003
:102DA00009F1070121F00702F2E802C1914605E0AE
:102DB0001FFA8CFC042A01D10CF0FF0C4FF0000824
:102DC000220728D5702806D0009B83F0100353EA11
:102DD0000A0305D00EE040228DF80420012208E00D
:102DE0005CEA010206D030228DF804208DF805003F
:102DF00002229046009B83F0080353EA0A030AD19B
:102E00005CEA010201D1620705D530228DF8042069
:102E10004FF001087F1E582804D034A003900EA85C
:102E200002900DE036A0F9E753466046009AFDF7A0
:102E300039FA84460398825C0298401E0290027020
:102E40005CEA0100F0D1029806A9081A00F1200AF4
:102E5000600702D524F4803400E00127574502DDE5
:102E6000A7EB0A0000E0002000EB0A0100900598A3
:102E70004144401A0590E00306D45B462146179A68
:102E8000059800F0B3F90544002706E001A85A466A
:102E9000C05D179990476D1C7F1C4745F6DBE0032A
:102EA0000CD55B462146179A059800F09FF905441A
:102EB00004E030205A46179990476D1C0099481E2F
:102EC00000900029F5DC08E0029802995A46007843
:102ED000491C0291179990476D1CBAF10001AAF1A3
:102EE000010AF1DC65E100000928010030313233CC
:102EF0003435363738396162636465660000000036
:102F0000303132333435363738394142434445461F
:102F10000000000000F058F90544761C30780028C5
:102F20007FF4ECAD19B02846BDE8F08F620700D4FD
:102F3000062709F1070222F0070CFCE80223E1460C
:102F400003F000485FEA080C02D00FF2702C0DE08D
:102F50005FEA045C02D50FF2682C07E05FEAC47CEC
:102F600002D00FF2602C01E0AFF2700C4FF0FF388E
:102F700023F00043CDF850C065280CD006DC45286E
:102F800009D046281DD047283DD13DE0662818D0FD
:102F900067287ED138E00021112F01DB112000E0ED
:102FA000781CCDE9000106A90EA8FFF7DDFCDDE9DC
:102FB0000F010E9A03910021009207F1010A04917A
:102FC0004DE04FF000400097CDE9011006A90EA892
:102FD000FFF7CAFCDDE90F0203920E9B1199002254
:102FE000DDF80CA00093049211B9791C00EB010AE2
:102FF000B7EB0A0004D4C0F1FF3007F1010A0490D6
:10300000AAEB0700019044E0012F00DA012700211C
:10301000112F01DD112000E03846CDE9000106A99D
:103020000EA8FFF7A1FCDDE90F010E9A0391002124
:1030300004910092BA4621070CD40399514500DA55
:103040008A46BAF1010F05DD009AAAF10101515C2F
:10305000302908D0B84202DA10F1040F06DA012153
:10306000CDE9011015E0AAF10101E9E7002805DC2E
:10307000049901440491AAEB000102E0411C51456E
:1030800000DD8A460499401A401C01904FF0004030
:103090000290200704D40198504501DBCDF804804C
:1030A00000208DF84F0002980DF14F07B0F1004F4E
:1030B00025D02B200E9002984FF0020800280CDA41
:1030C000404202902D200E9007E00A210298FDF761
:1030D000D3F83031029007F8011DB8F10001A8F1D2
:1030E0000108F2DC02980028EFD1791E0E980870D2
:1030F000307800F0200040F0450007F8020D12A8DB
:10310000C01B00F107081498007800B1012000EB03
:103110000A01019801EBE07105984144401A401EF4
:103120000590E00306D45B462146179A059800F007
:103130005DF805441498007818B15A4617999047DD
:103140006D1CE00324D55B462146179A059800F0D4
:103150004DF805441CE00498002807DBDDE9030175
:10316000884203DD0098405C179901E017993020F0
:103170005A469047049805F10105401C04900198B7
:10318000401E019004D12E205A46179990476D1C7D
:10319000BAF10001AAF1010ADDDC05E017F8010B24
:1031A0005A46179990476D1CB8F10001A8F1010823
:1031B000F4DC5B462146179A0598ABE62D0000002B
:1031C0002B000000200000002DE9F04104460025FE
:1031D0001E461746880404D405E039462020B0472F
:1031E0006D1C641EF9D52846BDE8F0812DE9F0413B
:1031F000044600251E469046C80301D5302700E04E
:103200002027880404D505E041463846B0476D1CA8
:10321000641EF9D52846BDE8F0810A68531C0B608E
:103220001070704710B504466FF00400FEF7F0FA16
:10323000E11704EB5171C1F3C701074A1170104641
:10324000007800EB4001C1EBC0104FF6FF7101EABE
:10325000C0000249088010BD180000201A0000209C
:103260000146114A12784A434FF0E0235A61002286
:103270009A611A46126942F001021A6100BF4FF0CA
:10328000E022106900F001021AB100F48032002A35
:10329000F5D04FF0E022126922F001024FF0E02356
:1032A0001A6100229A61704718000020FEF7C6FAE2
:1032B000FEF789F8B420FFF7B5FF4FF47A70FDF7F9
:1032C00078FB4FF47A70FDF774FBFEF7CBF8FDF74F
:1032D0007DFBEFA000F0FEFA42F2CF014FF49670B2
:1032E000FEF776FDFDF726FDFDF7C0FCFEF7E0FFDB
:1032F000FDF76AFEFDF760FA4FF47A70FDF759FBAF
:10330000EDA000F0E7FA0120FEF7EAF900BF612026
:10331000FEF7C6F90028FAD0B9E1EC48007800F0D1
:10332000010000286FD0EA480169C06881422BD0B3
:10333000E7480069407810280ED0E54800694078D9
:10334000822804D1E1480078C0F3800020B9DF482A
:103350000078C0F3C000B8B1DD4800694178DDA055
:1033600000F0B8FADA490869FDF7B0FBD8480069FF
:1033700000F50070D649086108460169406981423C
:1033800002D1D849D2480161D6480C38416800685A
:10339000814276D0D4A000F09DFAD2480C38406823
:1033A0000078042859D1CF480C384068407820284C
:1033B00053D1CC480C3840680079062842D2DFE867
:1033C00000F0030E18232D37CAA000F083FABF487F
:1033D000007820F00400001DBC4908703CE0CAA041
:1033E00000F078FAB948007820F00400B749087076
:1033F00032E0D0A000F06EFAB448007820F004006B
:10340000B249087028E016E1D6A000F063FAAF4890
:10341000007820F00400AD4908701DE0DBA000F04A
:1034200059FAAA48007820F00400A849087013E06F
:10343000E1A000F04FFAA548007820F00400A3496D
:10344000087009E0E4A000F045FAA048007820F0F8
:1034500004009E49087000BF5FE0A2480C38406835
:10346000007805282BD19F480C3840684078902878
:1034700025D19C480C384068407918B1012813D1F7
:1034800001E05BE000BFDDA000F024FA8F48007887
:1034900020F0080008308D4908700021DA4880F8D3
:1034A0002A12FEF7A7FA09E0D8A000F013FA87481D
:1034B000007820F001008549087000BF2DE08948A0
:1034C0000C3840680078022819D186480C384068CA
:1034D0004078D02813D1D3A000F0FCF9CA4890F866
:1034E0002A02012804D10021C74880F82A1214E0DA
:1034F0000021C54880F82A12FEF77CFA0DE07948D1
:103500000C3840684078302807D1CAA000F0E2F9B2
:1035100074490C394868FDF743FC72480C38406820
:1035200000F500706F490C394860084641688068B2
:10353000814203D1C44901F580504160B248C1695C
:103540008069814276D00021AF48C269C0690078A5
:10355000401C1154AC48C069411CBCA000F0BAF931
:10356000BD480068FCF774FE0446A749C969481CB9
:103570002246B9490968FCF772FE80B92021B74894
:10358000FDF762FB08B9012000E000200446224656
:103590002021B248FDF763FBFDF7A0FB3BE0AE48FE
:1035A0000068FCF755FE04469749C969481C224645
:1035B000AB490968FCF753FE10B9FDF78FFB2AE011
:1035C000A5480068FCF744FE04468F49C969481CB9
:1035D0002246A4490968FCF742FEC8B98A48C06976
:1035E000007BA14908600846006838B108460168B8
:1035F0009EA000F06FF9FEF755F906E09FA000F0DD
:1036000069F90021A148FEF7B0FAFDF767FB02E077
:103610009FA000F05FF97C48C06900F500707A490E
:10362000C8610846C169006A814230D12849183111
:103630007548C1612BE099A000F04CF900219C482D
:10364000FEF793FA00219B48FEF78FFA00209A4973
:1036500008804FF480619848801CFCF7DCFDFEF781
:10366000E5FEA0B995A000F035F91848007820F0E3
:103670000100401C1549087000208F4908804FF454
:1036800080618D48801CFCF7C6FDFDF719FC44E6FF
:10369000CFB5CDB3BFAACABCD4CBD0D0A3ACB3F501
:1036A000CABCBBAFB2CECAFDA3ACC7EBB5C8BAF2B9
:1036B0002E2E2E0D0A000000CFB5CDB3B3F5CABC37
:1036C000BBAFB3C9B9A62E2E2E0D0A0015000020DF
:1036D00030290020B7A2CBCDCAFDBEDD3A30782517
:1036E000780D0A003C190020BDD3CAD5B5BDCAFD6E
:1036F000BEDD3A00434F4E4E454354B1A8CEC4B34D
:10370000C9B9A60D0A000000C1ACBDD3D2D1BEDC40
:10371000BEF8A3ACB2BBD6A7B3D6B5C4D0ADD2E980
:10372000B0E6B1BEA3ACD7BCB1B8D6D8C6F40D0ACA
:1037300000000000C1ACBDD3D2D1BEDCBEF8A3AC4A
:10374000B2BBBACFB8F1B5C4BFCDBBA7B6CBB1EA57
:10375000CAB6B7FBA3ACD7BCB1B8D6D8C6F40D0A6D
:1037600000000000C1ACBDD3D2D1BEDCBEF8A3AC1A
:10377000B7FECEF1B6CBB2BBBFC9D3C3A3ACD7BCE7
:10378000B1B8D6D8C6F40D0A00000000C1ACBDD354
:10379000D2D1BEDCBEF8A3ACCEDED0A7B5C4D3C3B5
:1037A000BBA7C3FBBBF2C3DCC2EBA3ACD7BCB1B8B5
:1037B000D6D8C6F40D0A0000C1ACBDD3D2D1BEDC50
:1037C000BEF8A3ACCEB4CADAC8A8A3ACD7BCB1B813
:1037D000D6D8C6F40D0A0000C1ACBDD3D2D1BEDC30
:1037E000BEF8A3ACCEB4D6AAD7B4CCACA3ACD7BCED
:1037F000B1B8D6D8C6F40D0A00000000B6A9D4C4EA
:10380000B3C9B9A60D0A000030390020B6A9D4C446
:10381000CAA7B0DCA3ACD7BCB1B8D6D8C6F40D0AE1
:103820000000000050494E47B1A8CEC4BBD8B8B480
:103830000D0A0000B7FECEF1C6F7B5C8BCB630CD54
:10384000C6CBCD0D0A00000030090020C3FCC1EE3C
:103850003A25730D0A000000080000200000024015
:103860000C0000201000002004000020B5B9BCC6E8
:10387000CAB13A2564B7D6D6D30D0A00C8A1CFFB8A
:10388000B5B9BCC6CAB10D0A000000000000014075
:10389000CEB4D6AAD6B8C1EE0D0A0000D0E8D2AA9E
:1038A000C1ACBDD3B7FECEF1C6F72E2E2E0D0A0049
:1038B00000080040000400402C010020BDA8C1A267
:1038C000544350C1ACBDD3B3C9B9A62E2E2E0D0A98
:1038D000000000000FB438B505A800901248009A07
:1038E0000499FFF71FF8002000900F48FCF7B0FC88
:1038F000054600BF0D48008800F040000028F9D0C0
:1039000000240BE00848005D0849888000BF074894
:10391000008800F040000028F9D0641CAC42F1D3CC
:1039200038BC5DF814FB00002C00002000100140A2
:10393000014601F00F010A2902DA01F1300001E02D
:1039400001F1570040B270472DE9F043BDB0064683
:10395000884615461F46DDF810910EB105B117B91E
:103960003DB0BDE8F083B9F1400F00DDF8E740213C
:1039700016A8FCF750FC402106A8FCF74CFC4A4670
:10398000394616A8FCF72EFC4A46394606A8FCF72D
:1039900029FC00240CE016A8005D80F0360016A972
:1039A000085506A8005D80F05C0006A90855641C57
:1039B000402CF0DB26A800F0AFF826A801F042FD6D
:1039C000402216A926A801F053FD4246314626A8FA
:1039D00001F04EFD01A926A800F02AF826A800F063
:1039E0009BF826A801F02EFD402206A926A801F08A
:1039F0003FFD142201A926A801F03AFD01A926A83D
:103A000000F016F800240FE001A9095D0811FFF786
:103A10008FFF05F8140001A9085DFFF789FF012158
:103A200001EB44016854641C142CEDDB00BF97E7E4
:103A30002DE9FC4704460D462068400F616840EAC6
:103A4000C1062068C700300E8DF80000300C8DF8DC
:103A50000100300A8DF80200F0B28DF80300380E34
:103A60008DF80400380C8DF80500380A8DF8060032
:103A7000F8B28DF80700207800F03F08B8F1380F51
:103A800002D2C8F1380001E0C8F1780081464A4608
:103A90002049204601F0ECFC08226946204601F04E
:103AA000E7FCA068000E2870A068000C68702089F0
:103AB000000AA870207AE870E068000E2871E068BB
:103AC000000C6871A089000AA871207BE871206948
:103AD000000E28722069000C6872208A000AA87201
:103AE000207CE8726069000E28736069000C6873BE
:103AF000A08A000AA873207DE873A069000E2874CC
:103B0000A069000C6874208B000AA874207EE874F9
:103B1000BDE8FC875756000810B504465C212046D6
:103B2000FCF779FB10BD00002DE9F04390B007468B
:103B30000E4696F800C04FEA0C6C96F801804CEAED
:103B4000084C96F802804CEA082C96F803804CEA60
:103B5000080CCDF800C096F804C04FEA0C6C96F83B
:103B600005804CEA084C96F806804CEA082C96F83A
:103B700007804CEA080CCDF804C096F808C04FEA5C
:103B80000C6C96F809804CEA084C96F80A804CEACE
:103B9000082C96F80B804CEA080CCDF808C096F873
:103BA0000CC04FEA0C6C96F80D804CEA084C96F865
:103BB0000E804CEA082C96F80F804CEA080CCDF8E1
:103BC0000CC096F810C04FEA0C6C96F811804CEAC5
:103BD000084C96F812804CEA082C96F813804CEAB0
:103BE000080CCDF810C096F814C04FEA0C6C96F88B
:103BF00015804CEA084C96F816804CEA082C96F88A
:103C000017804CEA080CCDF814C096F818C04FEA9B
:103C10000C6C96F819804CEA084C96F81A804CEA1D
:103C2000082C96F81B804CEA080CCDF818C096F8C2
:103C30001CC04FEA0C6C96F81D804CEA084C96F8B4
:103C40001E804CEA082C96F81F804CEA080CCDF830
:103C50001CC096F820C04FEA0C6C96F821804CEA04
:103C6000084C96F822804CEA082C96F823804CEAFF
:103C7000080CCDF820C096F824C04FEA0C6C96F8DA
:103C800025804CEA084C96F826804CEA082C96F8D9
:103C900027804CEA080CCDF824C096F828C04FEADB
:103CA0000C6C96F829804CEA084C96F82A804CEA6D
:103CB000082C96F82B804CEA080CCDF828C096F812
:103CC0002CC04FEA0C6C96F82D804CEA084C96F804
:103CD0002E804CEA082C96F82F804CEA080CCDF880
:103CE0002CC096F830C04FEA0C6C96F831804CEA44
:103CF000084C96F832804CEA082C96F833804CEA4F
:103D0000080CCDF830C096F834C04FEA0C6C96F829
:103D100035804CEA084C96F836804CEA082C96F828
:103D200037804CEA080CCDF834C096F838C04FEA1A
:103D30000C6C96F839804CEA084C96F83A804CEABC
:103D4000082C96F83B804CEA080CCDF838C096F861
:103D50003CC04FEA0C6C96F83D804CEA084C96F853
:103D60003E804CEA082C96F83F804CEA080CCDF8CF
:103D70003CC0B868F9683A697B69BC694FEA401C85
:103D80004CEAD06882EA030C0CEA010C8CEA030CC2
:103D9000C444DFF8F88FC444DDF80080C4446444B0
:103DA0004FEA817C4CEA91014FEA441C4CEAD4680A
:103DB00081EA020C0CEA000C8CEA020CC444DFF825
:103DC000CC8FC444DDF80480C44463444FEA807C53
:103DD0004CEA90004FEA431C4CEAD36880EA010C9D
:103DE0000CEA040C8CEA010CC444DFF8A08FC44434
:103DF000DDF80880C44462444FEA847C4CEA9404B1
:103E00004FEA421C4CEAD26884EA000C0CEA030C2C
:103E10008CEA000CC444DFF8748FC444DDF80C80D5
:103E2000C44461444FEA837C4CEA93034FEA411C4B
:103E30004CEAD16883EA040C0CEA020C8CEA040C0C
:103E4000C444DFF8488FC444DDF81080C4446044A3
:103E50004FEA827C4CEA92024FEA401C4CEAD0685E
:103E600082EA030C0CEA010C8CEA030CC444DFF870
:103E70001C8FC444DDF81480C44464444FEA817C40
:103E80004CEA91014FEA441C4CEAD46881EA020CE6
:103E90000CEA000C8CEA020CC444DFF8F08EC44437
:103EA000DDF81880C44463444FEA807C4CEA9000FB
:103EB0004FEA431C4CEAD36880EA010C0CEA040C7C
:103EC0008CEA010CC444DFF8C48EC444DDF81C80C5
:103ED000C44462444FEA847C4CEA94044FEA421C96
:103EE0004CEAD26884EA000C0CEA030C8CEA000C61
:103EF000C444DFF8988EC444DDF82080C444614493
:103F00004FEA837C4CEA93034FEA411C4CEAD168A8
:103F100083EA040C0CEA020C8CEA040CC444DFF8BB
:103F20006C8EC444DDF82480C44460444FEA827C33
:103F30004CEA92024FEA401C4CEAD06882EA030C39
:103F40000CEA010C8CEA030CC444DFF8408EC44434
:103F5000DDF82880C44464444FEA817C4CEA910136
:103F60004FEA441C4CEAD46881EA020C0CEA000CCB
:103F70008CEA020CC444DFF8148EC444DDF82C80B3
:103F8000C44463444FEA807C4CEA90004FEA431CEF
:103F90004CEAD36880EA010C0CEA040C8CEA010CB0
:103FA000C444DFF8E88DC444DDF83080C444624482
:103FB0004FEA847C4CEA94044FEA421C4CEAD268F3
:103FC00084EA000C0CEA030C8CEA000CC444DFF811
:103FD000BC8DC444DDF83480C44461444FEA837C22
:103FE0004CEA93034FEA411C4CEAD16883EA040C83
:103FF0000CEA020C8CEA040CC444DFF8908DC44433
:10400000DDF83880C44460444FEA827C4CEA920276
:104010004FEA401C4CEAD06882EA030C0CEA010C1F
:104020008CEA030CC444DFF8648DC444DDF83C80A2
:10403000C44464444FEA817C4CEA9101DDF834C009
:10404000DDF820808CEA080CDDF808808CEA080C8A
:10405000DDF800808CEA08054FEA450C4CEAD5787B
:104060004FEA441C4CEAD46981EA020C0CEA000CC9
:104070008CEA020CCC44DFF8149DCC44C444634465
:10408000CDF800804FEA807C4CEA9000DDF838C023
:10409000DDF824808CEA080CDDF80C808CEA080C32
:1040A000DDF804808CEA08054FEA450C4CEAD57827
:1040B0004FEA431C4CEAD36980EA010C0CEA040C79
:1040C0008CEA010CCC44DFF8C49CCC44C444624468
:1040D000CDF804804FEA847C4CEA9404DDF83CC0BF
:1040E000DDF828808CEA080CDDF810808CEA080CDA
:1040F000DDF808808CEA08054FEA450C4CEAD578D3
:104100004FEA421C4CEAD26984EA000C0CEA030C28
:104110008CEA000CCC44DFF8749CCC44C444614469
:10412000CDF808804FEA837C4CEA9303DDF800C0A9
:10413000DDF82C808CEA080CDDF814808CEA080C81
:10414000DDF80C808CEA08054FEA450C4CEAD5787E
:104150004FEA411C4CEAD16983EA040C0CEA020CD8
:104160008CEA040CCC44DFF8249CCC44C444604466
:10417000CDF80C804FEA827C4CEA9202DDF804C054
:10418000DDF830808CEA080CDDF818808CEA080C29
:10419000DDF810808CEA08054FEA450C4CEAD5782A
:1041A0004FEA401C4CEAD06981EA020C8CEA030C0D
:1041B000CC44DFF8DC9BCC44C4446444CDF810808C
:1041C0004FEA817C4CEA9101DDF808C0DDF83480CB
:1041D0008CEA080CDDF81C808CEA080CDDF81480F1
:1041E0008CEA08054FEA450C4CEAD5784FEA441CA6
:1041F0004CEAD46980EA010C8CEA020CCC44DFF86A
:10420000909BCC44C4446344CDF814804FEA807C36
:104210004CEA9000DDF80CC0DDF838808CEA080C20
:10422000DDF820808CEA080CDDF818808CEA08059F
:104230004FEA450C4CEAD5784FEA431C4CEAD36967
:1042400084EA000C8CEA010CCC44DFF8449BCC449B
:10425000C4446244CDF818804FEA847C4CEA94044C
:10426000DDF810C0DDF83C808CEA080CDDF8248015
:104270008CEA080CDDF81C808CEA08054FEA450C36
:104280004CEAD5784FEA421C4CEAD26983EA040C26
:104290008CEA000CCC44DFF8F89ACC44C444614466
:1042A000CDF81C804FEA837C4CEA9303DDF814C000
:1042B000DDF800808CEA080CDDF828808CEA080C18
:1042C000DDF820808CEA08054FEA450C4CEAD578E9
:1042D0004FEA411C4CEAD16982EA030C8CEA040CD7
:1042E000CC44DFF8AC9ACC44C4446044CDF8208080
:1042F0004FEA827C4CEA9202DDF818C0DDF80480B7
:104300008CEA080CDDF82C808CEA080CDDF824809F
:104310008CEA08054FEA450C4CEAD5784FEA401C78
:104320004CEAD06981EA020C8CEA030CCC44DFF839
:10433000609ACC44C4446444CDF824804FEA817C24
:104340004CEA9101DDF81CC0DDF808808CEA080C0D
:10435000DDF830808CEA080CDDF828808CEA08054E
:104360004FEA450C4CEAD5784FEA441C4CEAD46934
:1043700080EA010C8CEA020CCC44DFF8149ACC449D
:10438000C4446344CDF828804FEA807C4CEA900016
:10439000DDF820C0DDF80C808CEA080CDDF83480F4
:1043A0008CEA080CDDF82C808CEA08054FEA450CF5
:1043B0004CEAD5784FEA431C4CEAD36984EA000CF6
:1043C0008CEA010CCC44DFF8C899CC44C444624464
:1043D000CDF82C804FEA847C4CEA9404DDF824C0AC
:1043E000DDF810808CEA080CDDF838808CEA080CC7
:1043F000DDF830808CEA08054FEA450C4CEAD578A8
:104400004FEA421C4CEAD26983EA040C8CEA000CA5
:10441000CC44DFF87C99CC44C4446144CDF830806E
:104420004FEA837C4CEA9303DDF828C0DDF8148062
:104430008CEA080CDDF83C808CEA080CDDF834804E
:104440008CEA08054FEA450C4CEAD5784FEA411C46
:104450004CEAD16982EA030C8CEA040CCC44DFF804
:104460003099CC44C4446044CDF834804FEA827C17
:104470004CEA9202DDF82CC0DDF818808CEA080CBA
:10448000DDF800808CEA080CDDF838808CEA08053D
:104490004FEA450C4CEAD5784FEA401C4CEAD0690B
:1044A00081EA020C8CEA030CCC44DFF8E498CC449B
:1044B000C4446444CDF838804FEA817C4CEA9101D1
:1044C000DDF830C0DDF81C808CEA080CDDF80480D3
:1044D0008CEA080CDDF83C808CEA08054FEA450CB4
:1044E0004CEAD5784FEA441C4CEAD46980EA010CC6
:1044F0008CEA020CCC44DFF89898CC44C444634462
:10450000CDF83C804FEA807C4CEA9000DDF834C066
:10451000DDF820808CEA080CDDF808808CEA080CB5
:10452000DDF800808CEA08054FEA450C4CEAD578A6
:104530004FEA431C4CEAD36984EA000C8CEA010C74
:10454000CC44DFF84C98CC44C4446244CDF800809D
:104550004FEA847C4CEA9404DDF838C0DDF824800E
:104560008CEA080CDDF80C808CEA080CDDF804807D
:104570008CEA08054FEA450C4CEAD5784FEA421C14
:104580004CEAD26983EA040C8CEA000CCC44DFF8D4
:104590000098CC44C4446144CDF804804FEA837C45
:1045A0004CEA9303DDF83CC0DDF828808CEA080C67
:1045B000DDF810808CEA080CDDF808808CEA08052C
:1045C0004FEA450C4CEAD5784FEA411C4CEAD169D8
:1045D00082EA030C8CEA040CCC44DFF8B497CC4498
:1045E000C4446044CDF808804FEA827C4CEA9202D1
:1045F000DDF800C0DDF82C808CEA080CDDF81480B2
:104600008CEA080CDDF80C808CEA08054FEA450CB2
:104610004CEAD5784FEA401C4CEAD06981EA020C9A
:104620008CEA030CCC44DFF86897CC44C44464445F
:10463000CDF80C804FEA817C4CEA9101DDF804C092
:10464000DDF830808CEA080CDDF818808CEA080C64
:10465000DDF810808CEA08054FEA450C4CEAD57865
:104660004FEA441C4CEAD46980EA010C8CEA020C43
:10467000CC44DFF81C97CC44C4446344CDF810808C
:104680004FEA807C4CEA9000DDF808C0DDF8348009
:104690008CEA080CDDF81C808CEA080CDDF814802C
:1046A0008CEA08054FEA450C4CEAD5784FEA431CE2
:1046B0004CEAD36984EA000C8CEA010CCC44DFF8A4
:1046C000D096CC44C4446244CDF814804FEA847C34
:1046D0004CEA9404DDF80CC0DDF838808CEA080C54
:1046E000DDF820808CEA080CDDF818808CEA0805DB
:1046F0004FEA450C4CEAD5784FEA421C4CEAD269A5
:1047000083EA040C8CEA000CCC44DFF88496CC4499
:10471000C4446144CDF818804FEA837C4CEA93038B
:10472000DDF810C0DDF83C808CEA080CDDF8248050
:104730008CEA080CDDF81C808CEA08054FEA450C71
:104740004CEAD5784FEA411C4CEAD16982EA030C65
:104750008CEA040CCC44DFF83896CC44C444604462
:10476000CDF81C804FEA827C4CEA92024FEA401C52
:104770004CEAD06901EA020C41EA020808EA03089F
:104780004CEA080CCC44DFF80C86E044DDF814C099
:10479000DDF800908CEA090CDDF828908CEA090C11
:1047A000DDF820908CEA09054FEA450C4CEAD57CEF
:1047B000CDF820C0C44464444FEA817C4CEA9101A6
:1047C0004FEA441C4CEAD46900EA010C40EA0108B3
:1047D00008EA02084CEA080CCC44DFF8B885E0444B
:1047E000DDF818C0DDF804908CEA090CDDF82C9097
:1047F0008CEA090CDDF824908CEA09054FEA450C97
:104800004CEAD57CCDF824C0C44463444FEA807C94
:104810004CEA90004FEA431C4CEAD36904EA000CCE
:1048200044EA000808EA01084CEA080CCC44DFF826
:104830006485E044DDF81CC0DDF808908CEA090CC2
:10484000DDF830908CEA090CDDF828908CEA090537
:104850004FEA450C4CEAD57CCDF828C0C4446244EC
:104860004FEA847C4CEA94044FEA421C4CEAD26939
:1048700003EA040C43EA040808EA00084CEA080CBE
:10488000CC44DFF81085E044DDF820C0DDF80C9062
:104890008CEA090CDDF834908CEA090CDDF82C90D8
:1048A0008CEA09054FEA450C4CEAD57CCDF82CC0C2
:1048B000C44461444FEA837C4CEA93034FEA411CB1
:1048C0004CEAD16902EA030C42EA030808EA040848
:1048D0004CEA080CCC44DFF8BC84E044DDF824C08A
:1048E000DDF810908CEA090CDDF838908CEA090CA0
:1048F000DDF830908CEA09054FEA450C4CEAD57C8E
:10490000CDF830C0C44460444FEA827C4CEA920245
:104910004FEA401C4CEAD06901EA020C41EA020865
:1049200008EA03084CEA080CCC44DFF86884E04449
:10493000DDF828C0DDF814908CEA090CDDF83C9015
:104940008CEA090CDDF834908CEA09054FEA450C35
:104950004CEAD57CCDF834C0C44464444FEA817C31
:104960004CEA91014FEA441C4CEAD46900EA010C7C
:1049700040EA010808EA02084CEA080CCC44DFF8D7
:104980001484E044DDF82CC0DDF818908CEA090CA2
:10499000DDF800908CEA090CDDF838908CEA090506
:1049A0004FEA450C4CEAD57CCDF838C0C44463448A
:1049B0004FEA807C4CEA90004FEA431C4CEAD369F2
:1049C00004EA000C44EA000808EA01084CEA080C72
:1049D000CC44DFF8C083E044DDF830C0DDF81C9043
:1049E0008CEA090CDDF804908CEA090CDDF83C90A7
:1049F0008CEA09054FEA450C4CEAD57CCDF83CC061
:104A0000C44462444FEA847C4CEA94044FEA421C5A
:104A10004CEAD26903EA040C43EA040808EA0008F5
:104A20004CEA080CCC44DFF86C83E044DDF834C079
:104A3000DDF820908CEA090CDDF808908CEA090C6E
:104A4000DDF800908CEA09054FEA450C4CEAD57C6C
:104A5000CDF800C0C44461444FEA837C4CEA930320
:104A60004FEA411C4CEAD16902EA030C42EA03080E
:104A700008EA04084CEA080CCC44DFF81883E04448
:104A8000DDF838C0DDF824908CEA090CDDF80C90D4
:104A90008CEA090CDDF804908CEA09054FEA450C14
:104AA0004CEAD57CCDF804C0C44460444FEA827C13
:104AB0004CEA92024FEA401C4CEAD06901EA020C2F
:104AC00041EA020808EA03084CEA080CCC44DFF883
:104AD000C482E044DDF83CC0DDF828908CEA090C83
:104AE000DDF810908CEA090CDDF808908CEA0905D5
:104AF0004FEA450C4CEAD57CCDF808C0C444644468
:104B00004FEA817C4CEA91014FEA441C4CEAD4699B
:104B100000EA010C40EA010808EA02084CEA080C25
:104B2000CC44DFF87082E044DDF800C0DDF82C9062
:104B30008CEA090CDDF814908CEA090CDDF80C9075
:104B40008CEA09054FEA450C4CEAD57CCDF80CC03F
:104B5000C44463444FEA807C4CEA90004FEA431C13
:104B60004CEAD36904EA000C44EA000808EA0108A8
:104B70004CEA080CCC44DFF81C82E044DDF804C0A9
:104B8000DDF830908CEA090CDDF818908CEA090CFD
:104B9000DDF810908CEA09054FEA450C4CEAD57C0B
:104BA000CDF810C0C44462444FEA847C4CEA9404BB
:104BB0004FEA421C4CEAD26903EA040C43EA0408B7
:104BC00008EA00084CEA080CCC44DFF8C881E0444D
:104BD000DDF808C0DDF834908CEA090CDDF81C9093
:104BE0008CEA090CDDF814908CEA09054FEA450CB3
:104BF0004CEAD57CCDF814C0C44461444FEA837CB0
:104C00004CEA93034FEA411C4CEAD16902EA030CD7
:104C100042EA030808EA04084CEA080CCC44DFF82E
:104C20007481E044DDF80CC0DDF838908CEA090CA2
:104C3000DDF820908CEA090CDDF818908CEA090563
:104C40004FEA450C4CEAD57CCDF818C0C44460440A
:104C50004FEA827C4CEA92024FEA401C4CEAD0694F
:104C600001EA020C41EA020808EA03084CEA080CCF
:104C7000CC44DFF82081E044DDF810C0DDF83C9042
:104C80008CEA090CDDF824908CEA090CDDF81C9004
:104C90008CEA09054FEA450C4CEAD57CCDF81CC0DE
:104CA000C44464444FEA817C4CEA91014FEA441CBD
:104CB0004CEAD46900EA010C40EA010808EA02085B
:104CC0004CEA080CCC44DFF8CC80E044DDF814C09A
:104CD000DDF800908CEA090CDDF828908CEA090CCC
:104CE000DDF820908CEA09054FEA450C4CEAD57CAA
:104CF000CDF820C0C44463444FEA807C4CEA900065
:104D00004FEA431C4CEAD36904EA000C44EA000869
:104D100008EA01084CEA080CCC44DFF87880E0444B
:104D2000DDF818C0DDF804908CEA090CDDF82C9051
:104D30008CEA090CDDF824908CEA09054FEA450C51
:104D40004CEAD57CCDF824C0C44462444FEA847C4C
:104D50004CEA94044FEA421C4CEAD26903EA040C80
:104D600043EA040808EA00084CEA080CCC44DFF8DF
:104D70002480E044DDF81CC0DDF808908CEA090CC2
:104D8000DDF830908CEA090C06E000009979825A2F
:104D9000A1EBD96EDCBC1B8FDDF828908CEA0905ED
:104DA0004FEA450C4CEAD57CCDF828C0C444614498
:104DB0004FEA837C4CEA93034FEA411C4CEAD169E9
:104DC00002EA030C42EA030808EA04084CEA080C69
:104DD000CC44DFF86886E044DDF820C0DDF80C90B4
:104DE0008CEA090CDDF834908CEA090CDDF82C9083
:104DF0008CEA09054FEA450C4CEAD57CCDF82CC06D
:104E0000C44460444FEA827C4CEA9202DDF824C03C
:104E1000DDF810808CEA080CDDF838808CEA080C8C
:104E2000DDF830808CEA08054FEA450C4CEAD5786D
:104E30004FEA401C4CEAD06981EA020C8CEA030C70
:104E4000CC44DFF8FC95CC44C4446444CDF83080B5
:104E50004FEA817C4CEA9101DDF828C0DDF814802E
:104E60008CEA080CDDF83C808CEA080CDDF8348014
:104E70008CEA08054FEA450C4CEAD5784FEA441C09
:104E80004CEAD46980EA010C8CEA020CCC44DFF8CD
:104E9000B095CC44C4446344CDF834804FEA807C60
:104EA0004CEA9000DDF82CC0DDF818808CEA080C84
:104EB000DDF800808CEA080CDDF838808CEA080503
:104EC0004FEA450C4CEAD5784FEA431C4CEAD369CB
:104ED00084EA000C8CEA010CCC44DFF86495CC44E5
:104EE000C4446244CDF838804FEA847C4CEA940490
:104EF000DDF830C0DDF81C808CEA080CDDF8048099
:104F00008CEA080CDDF83C808CEA08054FEA450C79
:104F10004CEAD5784FEA421C4CEAD26983EA040C89
:104F20008CEA000CCC44DFF81895CC44C4446144AE
:104F3000CDF83C804FEA837C4CEA9303DDF834C023
:104F4000DDF820808CEA080CDDF808808CEA080C7B
:104F5000DDF800808CEA08054FEA450C4CEAD5786C
:104F60004FEA411C4CEAD16982EA030C8CEA040C3A
:104F7000CC44DFF8CC94CC44C4446044CDF80080E9
:104F80004FEA827C4CEA9202DDF838C0DDF82480DA
:104F90008CEA080CDDF80C808CEA080CDDF8048043
:104FA0008CEA08054FEA450C4CEAD5784FEA401CDC
:104FB0004CEAD06981EA020C8CEA030CCC44DFF89D
:104FC0008094CC44C4446444CDF804804FEA817C8E
:104FD0004CEA9101DDF83CC0DDF828808CEA080C31
:104FE000DDF810808CEA080CDDF808808CEA0805F2
:104FF0004FEA450C4CEAD5784FEA441C4CEAD46998
:1050000080EA010C8CEA020CCC44DFF83494CC44E6
:10501000C4446344CDF808804FEA807C4CEA900099
:10502000DDF800C0DDF82C808CEA080CDDF8148077
:105030008CEA080CDDF80C808CEA08054FEA450C78
:105040004CEAD5784FEA431C4CEAD36984EA000C59
:105050008CEA010CCC44DFF8E893CC44C4446244AD
:10506000CDF80C804FEA847C4CEA9404DDF804C04F
:10507000DDF830808CEA080CDDF818808CEA080C2A
:10508000DDF810808CEA08054FEA450C4CEAD5782B
:105090004FEA421C4CEAD26983EA040C8CEA000C09
:1050A000CC44DFF89C93CC44C4446144CDF81080D8
:1050B0004FEA837C4CEA9303DDF808C0DDF83480C6
:1050C0008CEA080CDDF81C808CEA080CDDF81480F2
:1050D0008CEA08054FEA450C4CEAD5784FEA411CAA
:1050E0004CEAD16982EA030C8CEA040CCC44DFF868
:1050F0005093CC44C4446044CDF814804FEA827C81
:105100004CEA9202DDF80CC0DDF838808CEA080C1D
:10511000DDF820808CEA080CDDF818808CEA0805A0
:105120004FEA450C4CEAD5784FEA401C4CEAD0696E
:1051300081EA020C8CEA030CCC44DFF80493CC44E3
:10514000C4446444CDF818804FEA817C4CEA910154
:10515000DDF810C0DDF83C808CEA080CDDF8248016
:105160008CEA080CDDF81C808CEA08054FEA450C37
:105170004CEAD5784FEA441C4CEAD46980EA010C29
:105180008CEA020CCC44DFF8B892CC44C4446344AB
:10519000CDF81C804FEA807C4CEA9000DDF814C00A
:1051A000DDF800808CEA080CDDF828808CEA080C19
:1051B000DDF820808CEA08054FEA450C4CEAD578EA
:1051C0004FEA431C4CEAD36984EA000C8CEA010CD8
:1051D000CC44DFF86C92CC44C4446244CDF82080C7
:1051E0004FEA847C4CEA9404DDF818C0DDF80480B2
:1051F0008CEA080CDDF82C808CEA080CDDF82480A1
:105200008CEA08054FEA450C4CEAD5784FEA421C77
:105210004CEAD26983EA040C8CEA000CCC44DFF837
:105220002092CC44C4446144CDF824804FEA837C6E
:105230004CEA9303DDF81CC0DDF808808CEA080C0A
:10524000DDF830808CEA080CDDF828808CEA08054F
:105250004FEA450C4CEAD5784FEA411C4CEAD1693B
:1052600082EA030C8CEA040CCC44DFF8D491CC44E1
:10527000C4446044CDF828804FEA827C4CEA920214
:10528000DDF820C0DDF80C808CEA080CDDF83480F5
:105290008CEA080CDDF82C808CEA08054FEA450CF6
:1052A0004CEAD5784FEA401C4CEAD06981EA020CFE
:1052B0008CEA030CCC44DFF88891CC44C4446444A9
:1052C000CDF82C804FEA817C4CEA9101DDF824C0B6
:1052D000DDF810808CEA080CDDF838808CEA080CC8
:1052E000DDF830808CEA08054FEA450C4CEAD578A9
:1052F0004FEA441C4CEAD46980EA010C8CEA020CA7
:10530000CC44DFF83C91CC44C4446344CDF83080B5
:105310004FEA807C4CEA9000DDF828C0DDF814806C
:105320008CEA080CDDF83C808CEA080CDDF834804F
:105330008CEA08054FEA450C4CEAD5784FEA431C45
:105340004CEAD36984EA000C8CEA010CCC44DFF807
:10535000F090CC44C4446244CDF834804FEA847C5D
:105360004CEA9404DDF82CC0DDF818808CEA080CB7
:10537000DDF800808CEA080CDDF838808CEA08053E
:105380004FEA450C4CEAD5784FEA421C4CEAD26908
:1053900083EA040C8CEA000CCC44DFF8A490CC44E3
:1053A000C4446144CDF838804FEA837C4CEA9303CF
:1053B000DDF830C0DDF81C808CEA080CDDF80480D4
:1053C0008CEA080CDDF83C808CEA08054FEA450CB5
:1053D0004CEAD5784FEA411C4CEAD16982EA030CC9
:1053E0008CEA040CCC44DFF85890CC44C4446044AC
:1053F000CDF83C804FEA827C4CEA9202D7F808C094
:105400008444C7F808C0D7F80CC00CEB0108C7F8F3
:105410000C80D7F810C00CEB0208C7F81080D7F842
:1054200014C00CEB0308C7F81480D7F818C00CEBB5
:105430000408C7F8188010B0BDE8F083DCBC1B8FEF
:10544000D6C162CA00210160416006498160064AF6
:10545000C260CA430261044AD2434261034A826184
:10546000704700000123456789ABCDEFF0E1D2C35F
:105470002DE9F0410446884615460DB9BDE8F08196
:10548000207800F03F07C7F14006206828442060DC
:10549000206820602068A84202D26068401C6060DA
:1054A00087B1B5420ED304F11C01C81932464146FA
:1054B000FAF798FE04F11C012046FEF735FBB044D4
:1054C000AD1B002706E041462046FEF72DFB08F104
:1054D0004008403D402DF6D235B104F11C01C819F9
:1054E0002A464146FAF77EFE00BFC7E76131767172
:1054F0005479494949365800000000000000000076
:105500000B443030310000000000000000000000BB
:105510000000000000043666306538613033666490
:10552000343336366235393534636631383937626B
:1055300032383765613700000000000000000000CD
:10554000000000000000000000000000000000005B
:10555000000000000000202F7379732F61317671F5
:10556000547949494936582F443030312F7468698D
:105570006E672F6576656E742F70726F70657274CA
:10558000792F736574000000000000000000000027
:10559000000000000000000000000000000000000B
:1055A00000000000000000000000000000000000FB
:1055B00000000000000000000000000000000000EB
:1055C00000000000000000000000000000000000DB
:1055D000000000000000002F7379732F6131767195
:1055E000547949494936582F443030312F7468690D
:1055F0006E672F6576656E742F70726F706572744A
:10560000792F706F7374000000000000000000002C
:10561000000000000000000000000000000000008A
:10562000000000000000000000000000000000007A
:10563000000000000000000000000000000000006A
:10564000000000000000000000000000000000005A
:1056500000000000000000800000000000000000CA
:10566000000000000000000000000000000000003A
:10567000000000000000000000000000000000002A
:10568000000000000000000000000000000000001A
:1056900000000000000000004150502B4F6E655389
:1056A000573D3F004150502B4F6E6553573D4300CF
:1056B0004150502B4F6E655357434400DC56000851
:1056C000000000202C0000004829000808570008AE
:1056D0002C000020A442000058290008000000000F
:1056E00000000000A456000898560008B0560008B4
:1056F00000000000000000000000000001020304A0
:08570000010203040607080979
:04000005080001AD41
:00000001FF
